:08000000803102288731CD2F69
:10000A003B00BF173F13BB133C1022008E11200088
:10001A00EF102100E4012000ED010230F000700829
:10002A002100EA00DF01DE010800C32822000D13C7
:10003A000C150C192128242822000E142628220027
:10004A000E100E1829282C2822008E142E28220081
:10005A008E108E183128342822000E1536282200D8
:10006A000E11DD2822000E110C150C193D2840280E
:10007A0022000E14422822000E100E184528482885
:10008A0022008E144A2822008E108E184D285028DD
:10009A0022000D17522822000D13DD2822008E108F
:1000AA000C150C1959285C2822000E145E2822000F
:1000BA000E100E186128642822000E1566282200E8
:1000CA000E110E1969286C2822000D176E282200BD
:1000DA000D13DD2822000E100C150C19752878282E
:1000EA0022000D177A2822000D130D1B7D28802867
:1000FA0022008E14822822008E108E1885288828C5
:10010A0022000E158A2822000E11DD2822000E1464
:10011A000E189028932822008E14952822008E10FB
:10012A008E1898289B2822000E159D2822000E1151
:10013A000E19A028A32822000D17A52822000D13A6
:10014A000C11DD2822000D170C150C19AD28B0284A
:10015A0022000E14B22822000E100E18B528B82854
:10016A0022008E14BA2822008E108E18BD28C028AC
:10017A0022000E15C22822000E11DD28210059087E
:10018A00F000F1017108003A0319CC28A728700879
:10019A00013A03191B28033A03193728013A0319AC
:1001AA005328073A03196F28013A03198B28A728FD
:1001BA00080020003D088039C2004208CA003D35C7
:1001CA00C2004208CC00BC1FEB28EC28ED284C14D6
:1001DA004C080319F128F22802294C0A031DF628B3
:1001EA00F728FF280030BD000030BC000030BB00FB
:1001FA000030BA00BC17BD010A290030BD0000302A
:10020A00BC000030BB000030BA0041088039C2008F
:10021A004208CB004B084A06031914291529162946
:10022A004A174135C2004208CB00C01F1D291E29AA
:10023A001F294B144B0803192329242934294B0A53
:10024A00031D2829292931290030C1000030C000A6
:10025A000030BF000030BE00C017C1013C29003089
:10026A00C1000030C0000030BF000030BE004C08A2
:10027A004B0203184129422986294A1F4529462942
:10028A004A298030C2004208CA064C08C200420805
:10029A00CD004B08C2004208CC004D08C2004208FB
:1002AA00CB003A08C2004208CD003E08C20042080C
:1002BA00BA004D08C2004208BE003B08C20042080C
:1002CA00CD003F08C2004208BB004D08C2004208E8
:1002DA00BF003C08C2004208CD004008C2004208E4
:1002EA00BC004D08C2004208C0003D08C2004208D6
:1002FA00CD004108C2004208BD004D08C2004208B4
:10030A00C100CD014B08C200C3014308C5004C0817
:10031A004202C400031CC5034508803AC600803067
:10032A004602031D9A291A304402031C9D299E295C
:10033A00D62920003D083C043B043A04031DA629A3
:10034A00A8290130A9290030C2004208CD00003096
:10035A00BD000030BC000030BB000030BA004B08C2
:10036A00C2004208CC00DD294D1CBC29BD29C32985
:10037A004D360138C2004208CD00C5290310CD0C04
:10038A003A1CC829C929CA29CD170130C200BD376C
:10039A00BC0CBB0CBA0CC20BCC290130C2004208FF
:1003AA00CC0720004B084C02031CDC29DD29B929A3
:1003BA004A1BE029E129192A4C08031DE529E629E7
:1003CA00EF290030BD000030BC000030BB00003017
:1003DA00BA00152B3E08BA073F08BB3D4008BC3D92
:1003EA004108BD3D3D1CFA29FB29A52A4D1CFE29C1
:1003FA00FF29052A4D360138C2004208CD00072AD6
:10040A000310CD0C3A1C0A2A0B2A0C2ACD170130EC
:10041A00C200BD37BC0CBB0CBA0CC20B0E2A013091
:10042A00C2004208CC07A52A3D08803AC20041080A
:10043A00803A4202031D2B2A40083C02031D2B2A44
:10044A003F083B02031D2B2A3E083A0203182E2AB4
:10045A002F2A672AFF30C200FF30C300FF30C400D2
:10046A00FF30C5003A083E02C6003B083F3BC700C2
:10047A003C08403BC8003D08413BC9004608C2074A
:10048A004708C33D4808C43D4908C53D4508BD0065
:10049A004408BC004308BB004208BA008030C200CE
:1004AA004208CA06CD09CD0A4D08031D5D2A5E2AF7
:1004BA006F2A0130BA070030BB3D0030BC3D003026
:1004CA00BD3D6F2A3E08BA023F08BB3B4008BC3B11
:1004DA004108BD3B3D083C043B043A04031D762A0F
:1004EA00772AA12A4D08031D7B2A7C2AA12A0030DB
:1004FA00BD000030BC000030BB000030BA00152B34
:10050A000130BA35BB0DBC0DBD0D890B862ACD1F36
:10051A008F2A902A912A3A144D1C942A952A982AAD
:10052A000314CD0D9A2A0310CD0D4C0803199E2AE7
:10053A009F2AA12A0130CC02BC1FA42AA52A852AF7
:10054A00CB01CD1FA92AAA2AB82A4D087F39031937
:10055A00AF2AB02AB32ACB01CB0AB82A3A1CB62A48
:10056A00B72AB82AB02A4B080319BC2ABD2AEA2A94
:10057A000130BA070030BB3D0030BC3D0030BD3D04
:10058A003D1CC82AC92AEA2A3A08C2003B08C30005
:10059A003C08C4003D08C5000130C600C537C40C7C
:1005AA00C30CC20CC60BD32A4508BD004408BC00C4
:1005BA004308BB004208BA004C0A0319E52AE62A96
:1005CA00EA2A0130C2004208CC074C0A0319EE2A73
:1005DA00EF2AF42A4C08031DF32AF42A022B0030CE
:1005EA00BD000030BC000030BB000030BA004C082F
:1005FA00031D002B012B022BCA014C1C052B062BB9
:10060A00082BBC170C2B7F30C2004208BC054C36A5
:10061A00C2004208BD00CA1F132B142B152BBD178D
:10062A000800200023088039A8002808AD002335D7
:10063A00A8002808B300A21F232B242B252B331430
:10064A0033080319292B2A2B392B330A031D2E2B86
:10065A002F2B372B0030A3000030A2000030A1005E
:10066A000030A000A217412B0030A3000030A200E6
:10067A000030A1000030A00027088039A80028080F
:10068A00AD062735A8002808B200A61F4D2B4E2B11
:10069A004F2B321432080319532B542B632B320A73
:1006AA00031D582B592B612B0030A7000030A600E0
:1006BA000030A5000030A400A6176B2B0030A7005D
:1006CA000030A6000030A5000030A400320803194B
:1006DA006F2B702B752B3308031D742B752B7E2BF8
:1006EA000030A3000030A2000030A1000030A000BA
:1006FA006C2D2008A8002808F0002608893154210A
:10070A00833171082000B9007008B8003808A800C1
:10071A00A901AA01AB012B08B1002A08B0002908D7
:10072A00AF002808AE003908A800A901AA01AB0148
:10073A002B08B7002A08B6002908B5002808B40013
:10074A002108A8002808F00025088931542183319E
:10075A0071082000B9007008B8003808A800A9017B
:10076A00AA01AB012808AE072908AF3D2A08B03D07
:10077A002B08B13D3908A800A901AA01AB01280834
:10078A00B4072908B53D2A08B63D2B08B73D22080B
:10079A00A8002808F00024088931542183317108FF
:1007AA002000B9007008B8003808A800A901AA01F9
:1007BA00AB012808AE072908AF3D2A08B03D2B082F
:1007CA00B13D3908A800A901AA01AB012808B4075C
:1007DA002908B53D2A08B63D2B08B73D0830AE3585
:1007EA00AF0DB00DB10D890BF42B2108A800280814
:1007FA00F000240889315421833171082000B9009E
:10080A007008B8003808AE073908AF3D0030B03D6F
:10081A00B13D2008A8002808F00025088931542194
:10082A00833171082000B9007008B8003808AE0793
:10083A003908AF3D0030B03DB13D0830AE35AF0D9F
:10084A00B00DB10D890B232C2008A8002808F00050
:10085A00240889315421833171082000B9007008B5
:10086A00B8003808AE073908AF3D0030B03DB13D99
:10087A002108A8002808F00026088931542183316C
:10088A0071082000B9007008B8003808B4073908A0
:10089A00B53D0030B63DB73D2208A8002808F00053
:1008AA00250889315421833171082000B900700864
:1008BA00B8003808B4073908B53D0030B63DB73D31
:1008CA002208A8002808F00026088931542183311B
:1008DA0071082000B9007008B8003808A800390863
:1008EA00A900AA01AB010830A835A90DAA0DAB0DC4
:1008FA00890B792C2808B4072908B53D2A08B63D82
:10090A002B08B73D2E08A8002F08A9003008AA0016
:10091A003108AB001830AB36AA0CA90CA80C890B0D
:10092A00902C2808B4072908B53D2A08B63D2B089B
:10093A00B73D0830AE35AF0DB00DB10D890B9F2C08
:10094A0033083207A800A901A90D2808823EB80079
:10095A00FF30293DB900C82C0130B435B50DB60DAC
:10096A00B70D890BB22CB11FBB2CBC2CBD2C341477
:10097A000130AE35AF0DB00DB10D890BBE2CFF3075
:10098A00B807FF30B93DB61FCB2CCC2CB12CB20125
:10099A00B11FD02CD12CED2CFF302E05A800FF3032
:1009AA002F05A900FF303005AA007F303105AB00C2
:1009BA002B082A04290428040319E42CE52CE82C22
:1009CA00B201B20AED2C341CEB2CEC2CED2CE52CEC
:1009DA0032080319F12CF22C1A2D0130B407003019
:1009EA00B53D0030B63D0030B73D371CFD2CFE2C1E
:1009FA001A2D3408A8003508A9003608AA003708B5
:100A0A00AB000130AC00AB37AA0CA90CA80CAC0B9C
:100A1A00082D2B08B7002A08B6002908B5002808AF
:100A2A00B4000130B8070030B93D3908803AA8004F
:100A3A0080302802031D232DFF303802031C262D87
:100A4A00272D312D7F302000B7008030B6000030CE
:100A5A00B5000030B400602D20003908803AA800A3
:100A6A0080302802031D3B2D0130380203183E2D29
:100A7A003F2D4A2D00302000B7000030B60000306C
:100A8A00B5000030B400AD01602D20003808A80080
:100A9A002808B300FF30B405FF30B5057F30B6052E
:100AAA000030B705331C5A2D5B2D5C2DB617333633
:100ABA00A8002808B7002D08A8002808B704370896
:100ACA00A3003608A2003508A1003408A0000800D7
:100ADA002000EF116D03031D732D742D792D8A31BA
:100AEA002D2285312100DB011E3021005B02031C0F
:100AFA007F2D802D892DDB0114302000E100610853
:100B0A002100E4002000EE103B00BB1F8D2D8E2D2E
:100B1A00C72D01302000E10061082100E4070130FF
:100B2A002000E10061082100DB070A308A31DB225C
:100B3A00853121004D087602031DA52D4C0875024A
:100B4A00031CA82DA92DB82D0A308A31DB22853144
:100B5A00760821006702031DB42D75086602031882
:100B6A00B72DB82DC72D20006D08031DBD2DBE2D34
:100B7A00C72DEE1CC12DC22DC72D0130E100610821
:100B8A002100D607023021005602031CCD2DCE2D9E
:100B9A00D52DD6012000ED01ED0A2100DE01DF018D
:100BAA0064086A020318DA2DDB2D322F2000EE18B2
:100BBA00DF2DE02D322F0A308A31DB22853176088B
:100BCA002000E4007508E3006308F0006408F100FF
:100BDA00F201F30100308C31B4248531730820000E
:100BEA00D5007208D4007108D3007008D2006308D7
:100BFA00F0006408F100F201F30100308C31B424F2
:100C0A00853173082000A7007208A6007108A500A4
:100C1A007008A4003D30A300F530A200C230A10044
:100C2A008F30A00083311623853120002308D1009C
:100C3A002208D0002108CF002008CE0089313421B3
:100C4A00853120005108D9005008D8004F08D70034
:100C5A004E08D6008B31A623853120005708210083
:100C6A00CD00200056082100CC0020006308F000C7
:100C7A006408F100F201F30100308C31B4248531AB
:100C8A0073082000C1007208C0007108BF00700814
:100C9A00BE006308F0006408F100F201F3010030BD
:100CAA008C31B424853173082000A7007208A6008D
:100CBA007108A5007008A4003D30A300F530A20019
:100CCA00C230A1008F30A000833116238531200065
:100CDA002308BD002208BC002108BB002008BA0076
:100CEA008031DE20853120003D08D9003C08D8003B
:100CFA003B08D7003A08D6008B31A623853120005D
:100D0A0057082100E700200056082100E6002000CD
:100D1A006308F0006408F100F201F30100308C313D
:100D2A00B424853173082000D5007208D4007108F4
:100D3A00D3007008D2006308F0006408F100F201E1
:100D4A00F30100308C31B424853173082000A700E8
:100D5A007208A6007108A5007008A4003D30A3001F
:100D6A007530A200C230A1008F30A0008331162353
:100D7A00853120002308D1002208D0002108CF00A5
:100D8A002008CE0089313421853120005108D9004C
:100D9A005008D8004F08D7004E08D6008B31A6233A
:100DAA008531200057082100D5002000560821006F
:100DBA00D40020006308F0006408F100F201F30196
:100DCA0000308C31B424853173082000C1007208C8
:100DDA00C0007108BF007008BE006308F000640814
:100DEA00F100F201F30100308C31B424853173082B
:100DFA002000A7007208A6007108A5007008A400C8
:100E0A003D30A3007530A200C230A1008F30A0008F
:100E1A0083311623853120002308BD002208BC0037
:100E2A002108BB002008BA008031DE20853120006D
:100E3A003D08D9003C08D8003B08D7003A08D6003C
:100E4A008B31A6238531200057082100E9002000B4
:100E5A0056082100E8002000EE1420006F1C362FEF
:100E6A00372FA52F8C193A2F3B2FA52F6E088539BE
:100E7A00031D402F412FA52F80311A2085310130C3
:100E8A002000E10061082100D90720006E1A4E2FC8
:100E9A004F2F522F6E162100D80122008E1E562F78
:100EAA00572F632F0E1E5A2F5B2F632F8E120E178A
:100EBA0002302000E10061082100E50022008E1ABC
:100ECA00672F682F732F0E1E6B2F6C2F732F023014
:100EDA002000E10061082100E500982F2000E201CE
:100EEA0022000E1A792F7A2F7D2F2000E201E20AC2
:100EFA0020006208E100E10EE10D22000E08200048
:100F0A006106DF39610622008E000E0E890C013956
:100F1A00003A0319912F922F982F03302000E100F5
:100F2A0061082100E50088319F20853106302100C3
:100F3A005902031CA12FA22FCC2FD901D90ACC2FD9
:100F4A008031052085312100D90122000C150C19A8
:100F5A00AF2FB22F22000E14B42F22000E100E183B
:100F6A00B72FBA2F22008E14BC2F22008E108E1893
:100F7A00BF2FC22F22000E15C42F22000E110E19E8
:100F8A00C72FCA2F22000D17CC2F22000D130800DD
:100F9A009A3084008830850021001200E600120091
:100FAA00E7001200E8001200E9001200EA00983097
:100FBA008400213085005830FE000030FF0088315F
:100FCA00BA20873166308400003085000A30FE007E
:100FDA000030FF008831BA208731A0308400003009
:100FEA0085004630FE000030FF008831BA20873184
:100FFA0020008B313E2B2234013421340134203439
:10100A0001341F3401341E3401341D3401341C34BC
:10101A0001341B3401341A340134193401341834BC
:10102A0001341734013416340134153401341434BC
:10103A0001341334013412340134113401341034BC
:10104A0001340F3401340E3401340D3401340C34BC
:10105A0001340B3401340A340134093401340834BC
:10106A0001340734013406340134053401340434BC
:10107A0001340334013402340134013401340034BC
:10108A000134FE340034FD340034FC340034FB34C3
:10109A000034FA340034F9340034F8340034F734C4
:1010AA00003400340034FA347D343E341F341034B2
:0410BA0008340434BE
:10112E0020006F110800FF34FF34FF34FF34023407
:10113E003B00BF173F13BB173C140800803105203E
:10114E00883189319F21883122008C1408002100BA
:10115E00951295111508F839063895008330200040
:10116E0095008B1608006400800101310130FE02EB
:10117E000030FF3B7F087E04031DBB280034303057
:10118E0020009800B1309700DF309600181421002F
:10119E00111420001110080021001D141D088339A0
:1011AE0024389D009E171E088F3960389E00FC3033
:1011BE009E051113200011130800F400F201F30133
:1011CE00ED2800000130F0007008F4077408F000FC
:1011DE00F10171087302031DF62870087202031CD8
:1011EE00F928FA28E828640008003B00BB13FC30FD
:1011FE00BE058F30BE05BF173F139F30C0050130AF
:10120E00B6002230B500B4019130B300B201B10185
:10121E0005303D00A3003B003C143D1008002000AB
:10122E006F126F1C1B291C2933296E08853903196F
:10123E0021292229302922008C1403108C1E03141C
:10124E0003182A292D2922008C162F2922008C12F0
:10125E00332922008C168C10080080302000D10615
:10126E005508BD005408BC005308BB005208BA0014
:10127E005108C1005008C0004F08BF004E08BE0004
:10128E008031DE20893120003D08D1003C08D0009D
:10129E003B08CF003A08CE000800F800F401F50133
:1012AE007008F200F3017208F6007308F700781C5C
:1012BE006129622966297608F4077708F53D013021
:1012CE00F635F70D890B67290310F80C7808031D06
:1012DE00712972295E297508F1007408F000080062
:1012EE0088319F2089312000A701A601EF13EF1F3F
:1012FE00812982297E290130FC007C08A607043052
:10130E002602031C8B298C297D298C311B248931C3
:10131E000130FC007C082000A70705302702031CC3
:10132E0099299A297C29EF138031052089310800EB
:10133E0022000C150C19A429A72922000E14A92984
:10134E0022000E100E18AC29AF2922008E14B129DE
:10135E0022008E108E18B429B72922000E15B92935
:10136E0022000E110E19BC29BF2922000D17C1290A
:10137E0022000D138E168E1AC529C82922000E16AC
:10138E00CA2922000E128C102100D9012000EE0174
:10139E000230F1007108EB052100D801E601E701EA
:1013AE00CC01CD0180310520893108002100DD01FD
:1013BE002000EB1CE329E429002A03106F1C031400
:1013CE000318EA29ED2920006F14EF2920006F1071
:1013DE006F18F229F329FD2989319F2189312100C6
:1013EE00E50122008C142100D801002A88319F20AB
:1013FE00893120006B1D042A052A152A6F1C082A24
:10140E00092A152A22008E160E120E132000EE1037
:10141E002100E4010330F2007208E5002000EB1D0C
:10142E00192A1A2A2A2A6F1C1D2A1E2A2A2A220043
:10143E008E120E160E172000EE102100E40102305F
:10144E00F2007208E5002000EB0108000A308A3134
:10145E00DB228A3176082100A1007508A00055080C
:10146E002102031D3C2A54082002031C3F2A402A55
:10147E004A2A21086902031D462A20086802031819
:10148E00492A4A2A502A0130F9007908DF07DE017D
:10149E00542A0130F9007908DE0706305F02031C7A
:1014AE00592A5A2A6D2A8831A5208A312000EE1732
:1014BE000630F90079082100E5002000ED01023028
:1014CE00F90079082100EA00E4017D2A04305E0269
:1014DE00031C722A732A7D2A2000ED010230F900C6
:1014EE0079082100EA00E4012000EE100800210036
:1014FE0099171908873970389900FC3099055930B9
:10150E001A05F00059307006031D8E2A8F2A862A7E
:10151E00083024008C0020008C0121008C01230057
:10152E008C01883021008C00BE3020008C00BE3033
:10153E0022008C0024008D0120008D0121008D01E0
:10154E00103023008D003F3021008D00FF30200031
:10155E008D00FF3022008D0024008E0120008E01B0
:10156E0021008E01803023008E00803021008E00FD
:10157E00B73020008E00B73022008E008E148B0103
:10158E008831AE208A318831C6208A318831D32005
:10159E008A318831FC208A317F30F00070082100BA
:1015AE0095050B178B1708002000A0002008F700E8
:1015BE00F70DF70D21001D087706833977069D007C
:1015CE0032308831E4208A3121009D149D18F02A92
:1015DE00F12AED2A1C08F700F80177082000A40074
:1015EE007808A50021001B08F700F80177082000F5
:1015FE00A4007808A500A101A201A30121009D1459
:10160E009D180A2B0B2B072B1C08F700F8017708E7
:10161E002000A4007808A5000830A435A50D890B7C
:10162E00142B21001B08F700F80177082000A404F2
:10163E007808A50403302502EF3003192402031C99
:10164E00292B2A2B2B2BEE112408A1072508A23DAE
:10165E000130F7007708A30720302302031C382B34
:10166E00392B052B2208F6002108F50008008A31D7
:10167E007E228B312000EF01EE01EB01EF1F482B94
:10168E00492B452BEF130530E50065082100E000DE
:10169E008E315C268B31893177218B3120006F148E
:1016AE0020006E088539031D5D2B5E2B602B2200FA
:1016BE008C1620006E088539031D662B672B712B47
:1016CE006F1C6A2B6B2B712B8C1D6E2B6F2B712B42
:1016DE002100E50120006F1D752B762B792B8831AB
:1016EE0097208B312000EF1D7D2B7E2B812B85319A
:1016FE006D258B3120006F1E852B862B892B893112
:10170E0016218B316400153021005C02031C902BD6
:10171E00912B572B8C311B248B312100DC018D3109
:10172E0060258B310A3021005D02031C9F2BA02BFC
:10173E00572B8931DD218B31572B80310228031035
:10174E002000580D590DDA005A08E0006008031DFC
:10175E00B12BB22BBB2B0030D9000030D80000309B
:10176E00D7000030D6001A2C5608DA005708DB00D6
:10177E005808DC005908DD001F30DD36DC0CDB0CB0
:10178E00DA0C890BC42B5A08DE005E08DF00D8176E
:10179E00FF30D605FF30D705FF30D8050030D9050C
:1017AE009630E002E01FDC2BDD2BF52B6008803A33
:1017BE00973E0318E32BE42BE52BB22B0130D936E1
:1017CE00D80CD70CD60C890BE62B0130DA005A0850
:1017DE00E007031DF32BF42BE52B0A2C20306002BF
:1017EE00031CFA2BFB2B052CB22B0130D635D70D53
:1017FE00D80DD90D890BFD2B0130E0026008031DB9
:10180E00092C0A2CFC2B5F0803190E2C0F2C1A2CFA
:10181E00D609D709D809D909D60A0319D70A03193F
:10182E00D80A0319D90A08000A308A31DB228C3112
:10183E00FB010A308A31DB228C317508F9007608FB
:10184E00FA000530FA36F90C890B292C7B35A03EAF
:10185E00860087017908C03F7A08C13F7B35A03EDC
:10186E0086008701403FF900413FFA0079082100C8
:10187E00CA077A08CB3D0130F9007908FB07103012
:10188E007B02031C4B2C4C2C202C0430CB36CA0C68
:10189E00890B4D2C20008D1E552C562C5D2C0130A5
:1018AE00F90079082100D807D701792C2100D80139
:1018BE0020006E088539031D652C662C6C2C6F1C60
:1018CE00692C6A2C6C2C22008C1020006E1C702C43
:1018DE00712C772C6F1C742C752C772C2100E50144
:1018EE0020006E10043021004B02913003194A0281
:1018FE00031C822C832C892CD8010130F900790825
:10190E00D7078A2CD70102305802031C8F2C902C3B
:10191E00A72C20008C19942C952C9B2C0530F900AB
:10192E0079082100E500A02C0430F9007908210087
:10193E00E5008831A5208C3120006E142100D801DD
:10194E0002305702031CAC2CAD2CB32C8831A520D1
:10195E008C3120006E15B22C0800F800780803199F
:10196E00B92CBA2CCE2CF31FBD2CBE2CCE2C70094C
:10197E00FA007109FB007209FC007309FD00FA0AF6
:10198E000319FB0A0319FC0A0319FD0AD62C730866
:10199E00FD007208FC007108FB007008FA00730865
:1019AE00720471047004031DDD2CDE2CE72C003054
:1019BE00F3000030F2000030F1000030F0005F2D37
:1019CE009630F4007408F900F72C0130F400740816
:1019DE00F9070130FD36FC0CFB0CFA0C890BF12CCF
:1019EE00FE307D05031DFC2CFD2CEC2C112D013041
:1019FE00F4007408F9070130FA070030FB3D00309F
:101A0E00FC3D0030FD3D0130FD36FC0CFB0CFA0CAC
:101A1E00890B0B2DFF307D05031D162D172DFE2C6A
:101A2E00212D0130F9020130FA35FB0DFC0DFD0DB3
:101A3E00890B1B2DFC1B242D252D2B2D02307902FD
:101A4E0003182A2D2B2D182D79182E2D2F2D372DCD
:101A5E00FF30FA05FF30FB057F30FC05FF30FD053A
:101A6E000310F90C7908F400F501F601F7011830AE
:101A7E00F435F50DF60DF70D890B3F2D7408FA04AC
:101A8E007508FB047608FC047708FD047808031932
:101A9E00512D522D572DF31F552D562D572DFD1708
:101AAE007D08F3007C08F2007B08F1007A08F00054
:101ABE00080009308A31DB228D317508F90076086D
:101ACE00FA000530FA36F90C890B692D79082000D9
:101ADE00E6007A08E7002100C801C9012000EE15D2
:101AEE00FB0109308A31DB228D317508F900760849
:101AFE00FA000530FA36F90C890B812D7908210090
:101B0E00C8077A08C93D0130F9007908FB07103083
:101B1E007B02031C932D942D782D2000EE1D982D05
:101B2E00992DA82D2100480E0F392000E600210026
:101B3E00490EF0392000E6042100490E0F3920002D
:101B4E00E700EE1166081E3EF9000030673DFA0010
:101B5E0001307A02493003197902031CB72DB82DD2
:101B6E00DD2D6608E23EF900FF30673DFA000130D8
:101B7E007A024830031979020318C62DC72DDD2DC0
:101B8E006A08031DCB2DCC2DDD2D6F18CF2DD02D3A
:101B9E00D22DEB14E42D293068020318D72DD82D41
:101BAE00E42D0130F9007908E807E42D68080319DF
:101BBE00E12DE22DE42D0130E802033067021130F1
:101BCE0003196602031CEC2DED2D052E6808031972
:101BDE00F12DF22D052E6E0885390319F72DF82DEE
:101BEE00002E6F1CFB2DFC2D002E7A30F90079088B
:101BFE00EE05E80122008C102100E50128302000BE
:101C0E006802031C0B2E0C2E1D2EE8016A08031D04
:101C1E00112E122E1D2E0A30F90079082100DD003A
:101C2E002000EB140A30F9007908EA0066081E3E1F
:101C3E00F9000030673DFA0000307A02CA3003190D
:101C4E007902031C2B2E2C2E3C2E6608E23EF90048
:101C5E00FF30673DFA0000307A02C930031979026D
:101C6E0003183A2E3B2E3C2E6B1566081E3EF900CD
:101C7E000030673DFA0000307A025E3003197902B7
:101C8E00031C4A2E4B2E5B2E6608E23EF900FF30F7
:101C9E00673DFA0000307A025D30031979020318AD
:101CAE00592E5A2E5B2EEB1508002100E201D201AF
:101CBE00D301003022000E1B01302100E100220072
:101CCE000E132000EF1F6C2E6D2E682EEF13EF1FDC
:101CDE00712E722E6E2EEF13EC016C08A600A7016A
:101CEE00A635A70D0030260784008830273D8500D5
:101CFE00003FA800013FA90029083B00B6002000C4
:101D0E006C08A600A701A635A70D00302607840093
:101D1E008830273D850000083B00B500B401200047
:101D2E006C08A600A701A635A70D00302607840073
:101D3E008830273D8500003FA800013FA900A93645
:101D4E00A80C2808013E3B00B30088319F208E313D
:101D5E002000EF13EF1FB42EB52EB12EEF13F901A5
:101D6E00BE2E2000EF130130A6002608F907210031
:101D7E0060087902031CC42EC52EB82E0A308A3193
:101D8E00DB228E3120006C08A600A701A635A70D18
:101D9E009830A8002130A9002608280786002708B9
:101DAE00293D87007508C03F7608C13F6C08A60024
:101DBE00A701A635A70D9830A8002130A900260846
:101DCE00280786002708293D8700403FAA00413F8B
:101DDE00AB002B0821005302031DF92E20002A0808
:101DEE00210052020318FC2EFD2E122F20006C082B
:101DFE00A600A701A635A70D9830A8002130A9008E
:101E0E002608280786002708293D8700403F210025
:101E1E00D200413FD30001302000A6002608EC0777
:101E2E002C306C02031C1C2F1D2F742E80310520AC
:101E3E008E310000000000002000EC016C08A600AE
:101E4E00A701A635A70D9830A8002130A9002608B5
:101E5E00280786002708293D8700403FAA00413FFA
:101E6E00AB002100530820002B02031D422F21003E
:101E7E00520820002A020318452F462F7B2F6C088C
:101E8E00A600A701A635A70D9830A8002130A900FD
:101E9E002608280786002708293D8700403FAA000C
:101EAE00413FAB002B0821005102031D622F200081
:101EBE002A08210050020318652F662F7B2F200061
:101ECE006C08A600A701A635A70D9830A8002130F2
:101EDE00A9002608280786002708293D8700403FCD
:101EEE002100D000413FD10001302000A60026087D
:101EFE00EC072C306C02031C852F862F252F00003B
:101F0E0000002000EC016C08A600A701A635A70D65
:101F1E009830A8002130A900260828078600270837
:101F2E00293D8700403FAA00413FAB0021005108E8
:101F3E0020002B06031DA72F2100500820002A0683
:101F4E00031DAA2FAB2FAC2FB62F0130A6002608EB
:101F5E00EC072C306C02031CB52FB62F8A2F0530E0
:101F6E00EC026C08A600A701A635A70D00302607C7
:101F7E0084008830273D8500003FA800013FA9005E
:101F8E0029083B00B60020006C08A600A701A63564
:101F9E00A70D0030260784008830273D85000008F5
:101FAE003B00B500B40120006C08A600A701A635C1
:101FBE00A70D0030260784008830273D8500003F9E
:101FCE00A800013FA900A936A80C2808013E3B0035
:101FDE00B3002100610C2200031C0E1303180E1710
:101FEE0000000000000088319F208E3121009801F2
:021FFE000800D9
:020000040001F9
:04000E009C3FFF1FF5
:00000001FF
