:08000000803102288731CE2F68
:10000A003B00BF173F13BB173C1408002100E20155
:10001A00D201D301003022000E1B01302100E10081
:10002A0022000E132000EF1F1728EF13EF1F1B28C3
:10003A00EF13EC016C08A600A701A635A70D003046
:10004A00260784008830273D8500003FA800013F2D
:10005A00A90029083B00B60020006C08A600A701E9
:10006A00A635A70D0030260784008830273D850075
:10007A0000083B00B500B40120006C08A600A701E7
:10008A00A635A70D0030260784008830273D850055
:10009A00003FA800013FA900A936A80C2808013E84
:1000AA003B00B3008031052080312000EF13EF1FA1
:1000BA005C28EF13F90121006008790203186C2803
:1000CA002000EF130130A6002608F90760280A303D
:1000DA008C314B24803120006C08A600A701A6357C
:1000EA00A70D9830A8002130A90026082807860005
:1000FA002708293D87007508C03F7608C13F6C086C
:10010A00A600A701A635A70D9830A8002130A9009E
:10011A002608280786002708293D8700403FAA00AD
:10012A00413FAB002B0821005302031DA0282000E9
:10013A002A08210052020318B72820006C08A600DA
:10014A00A701A635A70D9830A8002130A9002608D6
:10015A00280786002708293D8700403F2100D20052
:10016A00413FD30001302000A6002608EC072C30BE
:10017A006C02031C1F288A317C2280310000000097
:10018A0000002000EC016C08A600A701A635A70D07
:10019A009830A8002130A9002608280786002708D9
:1001AA00293D8700403FAA00413FAB002100530888
:1001BA0020002B02031DE5282100520820002A02F4
:1001CA0003181A296C08A600A701A635A70D9830AE
:1001DA00A8002130A9002608280786002708293DFB
:1001EA008700403FAA00413FAB002B082100510283
:1001FA00031D032920002A082100500203181A2986
:10020A0020006C08A600A701A635A70D9830A80003
:10021A002130A9002608280786002708293D8700DB
:10022A00403F2100D000413FD10001302000A6000C
:10023A002608EC072C306C02031CC82800000000BA
:10024A002000EC016C08A600A701A635A70D98307E
:10025A00A8002130A9002608280786002708293D7A
:10026A008700403FAA00413FAB002100510820000F
:10027A002B06031D44292100500820002A060319D1
:10028A004E290130A6002608EC072C306C02031C0C
:10029A0027290530EC026C08A600A701A635A70D90
:1002AA000030260784008830273D8500003FA800DB
:1002BA00013FA90029083B00B60020006C08A600EF
:1002CA00A701A635A70D0030260784008830273DF0
:1002DA00850000083B00B500B40120006C08A600A8
:1002EA00A701A635A70D0030260784008830273DD0
:1002FA008500003FA800013FA900A936A80C2808DC
:10030A00013E3B00B3002100610C2200031C0E13C6
:10031A0003180E170000000000008031052021009C
:10032A009801080020003D088039C2004208CA002E
:10033A003D35C2004208CC00BC1B4C144C080319C2
:10034A00B4294C0A031DB1290030BD000030BC009D
:10035A000030BB000030BA00BC17BD01BC29003018
:10036A00BD000030BC000030BB000030BA004108BC
:10037A008039C2004208CB004B084A06031D4A17BF
:10038A004135C2004208CB00C01B4B144B0803196D
:10039A00DC294B0A031DD9290030C1000030C000F6
:1003AA000030BF000030BE00C017C101E429003090
:1003BA00C1000030C0000030BF000030BE004C0851
:1003CA004B0203182A2A4A1FEE298030C20042082B
:1003DA00CA064C08C2004208CD004B08C2004208B7
:1003EA00CC004D08C2004208CB003A08C2004208BD
:1003FA00CD003E08C2004208BA004D08C2004208B9
:10040A00BE003B08C2004208CD003F08C2004208B5
:10041A00BB004D08C2004208BF003C08C2004208A7
:10042A00CD004008C2004208BC004D08C200420884
:10043A00C0003D08C2004208CD004108C20042087F
:10044A00BD004D08C2004208C100CD014B08C200E0
:10045A00C3014308C5004C084202C400031CC5037B
:10046A004508803AC60080304602031D3E2A1A30EB
:10047A004402031C722A20003D083C043B043A044F
:10048A000319492A01304A2A0030C2004208CD0025
:10049A000030BD000030BC000030BB000030BA00A4
:1004AA004B08C2004208CC00772A4D1C622A4D36FE
:1004BA000138C2004208CD00642A0310CD0C3A1854
:1004CA00CD170130C200BD37BC0CBB0CBA0CC20B35
:1004DA00682A0130C2004208CC0720004B084C02AF
:1004EA00031C5A2A4A1BA82A4C08031D852A0030D5
:1004FA00BD000030BC000030BB000030BA0008006C
:10050A003E08BA073F08BB3D4008BC3D4108BD3D17
:10051A003D1C222B4D1C972A4D360138C200420839
:10052A00CD00992A0310CD0C3A18CD170130C2001C
:10053A00BD37BC0CBB0CBA0CC20B9D2A0130C200E1
:10054A004208CC07222B3D08803AC2004108803A73
:10055A004202031DBA2A40083C02031DBA2A3F0878
:10056A003B02031DBA2A3E083A020318F22AFF3058
:10057A00C200FF30C300FF30C400FF30C5003A0894
:10058A003E02C6003B083F3BC7003C08403BC80050
:10059A003D08413BC9004608C2074708C33D480811
:1005AA00C43D4908C53D4508BD004408BC00430890
:1005BA00BB004208BA008030C2004208CA06CD0910
:1005CA00CD0A4D08031DFA2A0130BA070030BB3D97
:1005DA000030BC3D0030BD3DFA2A3E08BA023F0851
:1005EA00BB3B4008BC3B4108BD3B3D083C043B04C7
:1005FA003A04031D202B4D08031D202B0030BD009B
:10060A000030BC000030BB000030BA0008000130E6
:10061A00BA35BB0DBC0DBD0D890B0D2BCD1B3A1484
:10062A004D1C192B03141A2B0310CD0D4C0803195A
:10063A00202B0130CC02BC1F0C2BCB01CD1F2D2B44
:10064A004D087F3903193A182B2B2D2BCB01CB0AD6
:10065A004B080319592B0130BA070030BB3D003053
:10066A00BC3D0030BD3D3D1C592B3A08C2003B0839
:10067A00C3003C08C4003D08C5000130C600C537A8
:10068A00C40CC30CC20CC60B442B4508BD0044085D
:10069A00BC004308BB004208BA004C0A0319592B94
:1006AA000130C2004208CC074C0A031D4C08031D46
:1006BA00692B0030BD000030BC000030BB000030A8
:1006CA00BA004C080319CA014C1C6D2BBC17712BBC
:1006DA007F30C2004208BC054C36C2004208BD0049
:1006EA00CA1F0800BD1708002000EF116D03031D83
:1006FA00832B8B31B22383312100DB011E30210091
:10070A005B02031C912BDB0114302000E10061081D
:10071A002100E4002000EE103B00BB1FC42B013077
:10072A002000E10061082100E40701302000E10017
:10073A0061082100DB070A308C314B248331210008
:10074A004D087602031DAB2B4C087502031CBA2B0D
:10075A000A308C314B248331760821006702031D4D
:10076A00B82B750866020318C42B20006D080319FC
:10077A00EE1CC42B0130E10061082100D6070230CB
:10078A0021005602031CD02BD6012000ED01ED0AF0
:10079A002100DE01DF0164086A020318292D200006
:1007AA00EE18292D0A308C314B248331760820002B
:1007BA00E4007508E3006308F0006408F100F20140
:1007CA00F30100308D31E325833173082000D50011
:1007DA007208D4007108D3007008D2006308F000D0
:1007EA006408F100F201F30100308D31E325833111
:1007FA0073082000A7007208A6007108A5007008F7
:10080A00A4003D30A300F530A200C230A1008F3011
:10081A00A0008531A225833120002308D1002208B7
:10082A00D0002108CF002008CE008A31F922833176
:10083A0020005108D9005008D8004F08D7004E08A8
:10084A00D6008C31FF248331200057082100CD00C7
:10085A00200056082100CC0020006308F00064083C
:10086A00F100F201F30100308D31E3258331730881
:10087A002000C1007208C0007108BF007008BE00E5
:10088A006308F0006408F100F201F30100308D31D1
:10089A00E325833173082000A7007208A6007108B7
:1008AA00A5007008A4003D30A300F530A200C230B4
:1008BA00A1008F30A0008531A225833120002308B2
:1008CA00BD002208BC002108BB002008BA00813103
:1008DA009721833120003D08D9003C08D8003B0805
:1008EA00D7003A08D6008C31FF24833120005708FC
:1008FA002100E700200056082100E60020006308D6
:10090A00F0006408F100F201F30100308D31E325B3
:10091A00833173082000D5007208D4007108D3000F
:10092A007008D2006308F0006408F100F201F301D4
:10093A0000308D31E325833173082000A700720847
:10094A00A6007108A5007008A4003D30A300753008
:10095A00A200C230A1008F30A0008531A2258331C8
:10096A0020002308D1002208D0002108CF00200847
:10097A00CE008A31F922833120005108D90050086B
:10098A00D8004F08D7004E08D6008C31FF24833197
:10099A00200057082100D500200056082100D40065
:1009AA0020006308F0006408F100F201F30100304E
:1009BA008D31E325833173082000C1007208C0001D
:1009CA007108BF007008BE006308F0006408F100F7
:1009DA00F201F30100308D31E325833173082000E1
:1009EA00A7007208A6007108A5007008A4003D308F
:1009FA00A3007530A200C230A1008F30A00085315B
:100A0A00A225833120002308BD002208BC0021084A
:100A1A00BB002008BA0081319721833120003D08AC
:100A2A00D9003C08D8003B08D7003A08D6008C31D8
:100A3A00FF248331200057082100E90020005608CE
:100A4A002100E8002000EE1420006F188C197E2D7A
:100A5A006E088539031D7E2D8E317826833101304B
:100A6A002000E10061082100D90720006E1A402DFC
:100A7A006E162100D80122008E1A0E1E4C2D8E12DF
:100A8A000E1702302000E10061082100E500220073
:100A9A008E1E0E1E522D02306E2D2000E201220003
:100AAA000E1A5A2D2000E201E20A20006208E10033
:100ABA00E10EE10D22000E0820006106DF39610611
:100ACA0022008E000E0E890C0139003A0319732D8B
:100ADA0003302000E10061082100E5008031052093
:100AEA008331063021005902031C0800D901D90AB2
:100AFA0008008A317C2283312100D90122000C1599
:100B0A000C1D8A2D22000E148C2D22000E100E1C94
:100B1A00912D22008E14932D22008E108E1C982D5A
:100B2A0022000E159A2D22000E110E1D9F2D220055
:100B3A000D17080022000D13080020002308803931
:100B4A00A8002808AD002335A8002808B300A21B76
:100B5A00331433080319BE2D330A031DBC2D00308C
:100B6A00A3000030A2000030A1000030A000A217AC
:100B7A00C62D0030A3000030A2000030A1000030D2
:100B8A00A00027088039A8002808AD062735A80044
:100B9A002808B200A61B321432080319E12D320AC2
:100BAA00031DDF2D0030A7000030A6000030A5008D
:100BBA000030A400A617E92D0030A7000030A600D7
:100BCA000030A5000030A4003208031D3308031DBD
:100BDA00F72D0030A3000030A2000030A100003041
:100BEA00A00008002008A8002808F00026088A317A
:100BFA00DA22853171082000B9007008B800380877
:100C0A00A800A901AA01AB012B08B1002A08B0006B
:100C1A002908AF002808AE003908A800A901AA01CE
:100C2A00AB012B08B7002A08B6002908B500280826
:100C3A00B4002108A8002808F00025088A31DA2221
:100C4A00853171082000B9007008B8003808A8007A
:100C5A00A901AA01AB012808AE072908AF3D2A0855
:100C6A00B03D2B08B13D3908A800A901AA01AB0182
:100C7A002808B4072908B53D2A08B63D2B08B73D10
:100C8A002208A8002808F00024088A31DA228531CF
:100C9A0071082000B9007008B8003808A800A90136
:100CAA00AA01AB012808AE072908AF3D2A08B03DC2
:100CBA002B08B13D3908A800A901AA01AB012808EF
:100CCA00B4072908B53D2A08B63D2B08B73D0830B8
:100CDA00AE35AF0DB00DB10D890B6D2E2108A800F0
:100CEA002808F00024088A31DA22853171082000A8
:100CFA00B9007008B8003808AE073908AF3D0030AF
:100D0A00B03DB13D2008A8002808F00025088A3126
:100D1A00DA22853171082000B9007008B800380855
:100D2A00AE073908AF3D0030B03DB13D0830AE35B1
:100D3A00AF0DB00DB10D890B9C2E2008A800280814
:100D4A00F00024088A31DA22853171082000B900BE
:100D5A007008B8003808AE073908AF3D0030B03D1A
:100D6A00B13D2108A8002808F00026088A31DA22B5
:100D7A00853171082000B9007008B8003808B40736
:100D8A003908B53D0030B63DB73D2208A80028080D
:100D9A00F00025088A31DA22853171082000B9006D
:100DAA007008B8003808B4073908B53D0030B63DB8
:100DBA00B73D2208A8002808F00026088A31DA225E
:100DCA00853171082000B9007008B8003808A800F9
:100DDA003908A900AA01AB010830A835A90DAA0D46
:100DEA00AB0D890BF22E2808B4072908B53D2A084D
:100DFA00B63D2B08B73D2E08A8002F08A9003008D9
:100E0A00AA003108AB001830AB36AA0CA90CA80C02
:100E1A00890B092F2808B4072908B53D2A08B63DC9
:100E2A002B08B73D0830AE35AF0DB00DB10D890BAB
:100E3A00182F33083207A800A901A90D2808823EF5
:100E4A00B800FF30293DB900B61B402F0130B43538
:100E5A00B50DB60DB70D890B2C2FB11B341401300B
:100E6A00AE35AF0DB00DB10D890B352FFF30B80778
:100E7A00FF30B93D292FB201B11F592FFF302E057E
:100E8A00A800FF302F05A900FF303005AA007F30E7
:100E9A003105AB002B082A04290428040319341845
:100EAA00572F592FB201B20A32080319822F013083
:100EBA00B4070030B53D0030B63D0030B73D371CB1
:100ECA00822F3408A8003508A9003608AA00370876
:100EDA00AB000130AC00AB37AA0CA90CA80CAC0BC8
:100EEA00702F2B08B7002A08B6002908B500280871
:100EFA00B4000130B8070030B93D3908803AA8007B
:100F0A0080302802031D8B2FFF303802031C972FD5
:100F1A007F302000B7008030B6000030B5000030C6
:100F2A00B400C12F20003908803AA8008030280276
:100F3A00031DA12F013038020318AE2F0030200004
:100F4A00B7000030B6000030B5000030B400AD0183
:100F5A00C12F20003808A8002808B300FF30B405C4
:100F6A00FF30B5057F30B6050030B7053318B61720
:100F7A003336A8002808B7002D08A8002808B704A7
:100F8A003708A3003608A2003508A1003408A000DB
:100F9A000800393084008A30850021001200E600FA
:100FAA001200E7001200E8001200E9001200EA004D
:100FBA0098308400213085005830FE000030FF0050
:100FCA008A315222873166308400003085000A3027
:100FDA00FE000030FF008A3152228731A03084009F
:100FEA00003085004630FE000030FF008A31522270
:100FFA0020008B31FA2B223401342134013420347D
:10100A0001341F3401341E3401341D3401341C34BC
:10101A0001341B3401341A340134193401341834BC
:10102A0001341734013416340134153401341434BC
:10103A0001341334013412340134113401341034BC
:10104A0001340F3401340E3401340D3401340C34BC
:10105A0001340B3401340A340134093401340834BC
:10106A0001340734013406340134053401340434BC
:10107A0001340334013402340134013401340034BC
:10108A000134FE340034FD340034FC340034FB34C3
:10109A000034FA340034F9340034F8340034F734C4
:1010AA00003400340034FA347D343E341F341034B2
:0410BA0008340434BE
:10146C0020006F110800FF34FF34FF34FF340234C6
:10147C008A317C228A318B31392322008C1408006A
:10148C002100951295111508F8390638950083300E
:10149C00200095008B16080064008001013101309A
:1014AC00FE020030FF3B7F087E0403190034532AF0
:1014BC00303020009800B1309700DF3096001814BF
:1014CC002100111420001110080021001D141D080A
:1014DC00833924389D009E171E088F3960389E0072
:1014EC00FC309E0511132000111308003B00BF17A0
:1014FC003F13BB133C1022008E112000EF10210073
:10150C00E4012000ED010230F00070082100EA0037
:10151C00DF01DE010800F400F201F3017408F000B1
:10152C00F10171087302031D9D2A700872020318E1
:10153C00A52A00000130F0007008F407942A64001A
:10154C00080020006F126F1C08006E088539031903
:10155C00BC2A22008C1403108C1E0314031CB92A01
:10156C0022008C16080022008C12080022008C1617
:10157C008C1008003B00BB13FC30BE058F30BE0541
:10158C00BF173F139F30C0050130B6002230B500A5
:10159C00B4019130B300B201B10105303D00A3009C
:1015AC003B003C143D100800F800F401F5017008F4
:1015BC00F200F3017208F6007308F700781CEA2AAF
:1015CC007608F4077708F53D0130F635F70D890BF1
:1015DC00EB2A0310F80C7808031DE42A7508F100B7
:1015EC007408F000080080302000D1065508BD00BA
:1015FC005408BC005308BB005208BA005108C10083
:10160C005008C0004F08BF004E08BE008131972122
:10161C0020003D08D1003C08D0003B08CF003A0820
:10162C00CE000800803105208B312000A701A601D7
:10163C00EF13EF1F1F2B0130FC007C08A6070430B2
:10164C002602031C1E2B8D3165258B310130FC00CD
:10165C007C082000A70705302702031C1D2BEF1365
:10166C008A317C22080022000C150C1D402B220014
:10167C000E14422B22000E100E1C472B22008E142F
:10168C00492B22008E108E1C4E2B22000E15502B37
:10169C0022000E110E1D552B22000D17572B220068
:1016AC000D138E168E1E5D2B22000E165F2B220044
:1016BC000E128C102100D9012000EE010230F10035
:1016CC007108EB052100D801E601E701CC01CD0141
:1016DC008A317C2208002100DD012000EB1C8F2BBD
:1016EC0003106F1C0314031C7E2B20006F14802B23
:1016FC0020006F106F188C2B8B3139238B3121000C
:10170C00E50122008C142100D8018F2B803105209B
:10171C008B3120006B196F1C9F2B22008E160E1222
:10172C000E132000EE102100E4010330F2007208C9
:10173C00E5002000EB196F1CAF2B22008E120E1649
:10174C000E172000EE102100E4010230F2007208A6
:10175C00E5002000EB0108000A308C314B248B3162
:10176C0076082100A1007508A00055082102031D70
:10177C00C12B54082002031CCB2B21086902031D2A
:10178C00C92B200868020318D12B0130F900790805
:10179C00DF07DE01D52B0130F9007908DE070630B2
:1017AC005F02031CEB2B8A313E222000EE17063021
:1017BC00F90079082100E5002000ED010230F90064
:1017CC0079082100EA00E401080004305E02031CE1
:1017DC0008002000ED010230F90079082100EA0030
:1017EC00E4012000EE1008008C31A5248B31200080
:1017FC00EF01EE01EB01EF1F012CEF130530E500BB
:10180C0065082100E00080310B208B318B311823CF
:10181C008B3120006F1420006E088539031D182CA5
:10182C0022008C1620006E08853903196F1C222C9F
:10183C008C1D222C2100E50120006F1D282C8A31E3
:10184C0036228B312000EF1D2E2C833179238B31E6
:10185C0020006F1E342C8A31A7228B316400153086
:10186C0021005C02031C112C8D3165258B3121006C
:10187C00DC018F312A278B310A3021005D02031CD9
:10188C00112C8B3171238B31112C2000A0002008DE
:10189C00F700F70DF70D21001D0877068339770641
:1018AC009D0032308A3191228C3121009D149D187B
:1018BC005D2C1C08F700F80177082000A4007808BC
:1018CC00A50021001B08F700F80177082000A400F0
:1018DC007808A500A101A201A30121009D149D1867
:1018EC00752C1C08F700F80177082000A400780874
:1018FC00A5000830A435A50D890B802C21001B08F0
:10190C00F700F80177082000A4047808A504033038
:10191C002502EF30031924020318EE112408A10745
:10192C002508A23D0130F7007708A30720302302D9
:10193C00031C732C2208F6002108F5000800210076
:10194C0099171908873970389900FC309905593066
:10195C001A05F00059307006031DAD2C0830240018
:10196C008C0020008C0121008C0123008C0188301C
:10197C0021008C00BE3020008C00BE3022008C0078
:10198C0024008D0120008D0121008D0110302300D9
:10199C008D003F3021008D00FF3020008D00FF3086
:1019AC0022008D0024008E0120008E0121008E016A
:1019BC00803023008E00803021008E00B730200054
:1019CC008E00B73022008E008E148B018A31462295
:1019DC008C318A315E228C318A316B228C318A3186
:1019EC00C0227F30F0007008210095050B178B1773
:1019FC00080003102000580D590DDA005A08E000B9
:101A0C006008031D122D0030D9000030D8000030C2
:101A1C00D7000030D60008005608DA005708DB0063
:101A2C005808DC005908DD001F30DD36DC0CDB0CFF
:101A3C00DA0C890B1B2D5A08DE005E08DF00D81764
:101A4C00FF30D605FF30D705FF30D8050030D9055B
:101A5C009630E002E01F452D6008803A973E031C4B
:101A6C00092D0130D936D80CD70CD60C890B382D52
:101A7C000130DA005A08E0070319562D372D2030B3
:101A8C0060020318092D60080319562D0130D63554
:101A9C00D70DD80DD90D890B4D2D0130E002492DF4
:101AAC005F0803190800D609D709D809D909D60A3D
:101ABC000319D70A0319D80A0319D90A08000A30DE
:101ACC008C314B248D31FB010A308C314B248D3100
:101ADC007508F9007608FA000530FA36F90C890B0E
:101AEC00732D7B35A03E860087017908C03F7A08AC
:101AFC00C13F7B35A03E86008701403FF900413F46
:101B0C00FA0079082100CA077A08CB3D0130F900A8
:101B1C007908FB0710307B02031C6A2D0430CB368E
:101B2C00CA0C890B952D20008D1EA32D0130F900B8
:101B3C0079082100D807D701B52D2100D801200044
:101B4C006E08853903196F1CAD2D22008C102000F6
:101B5C006E186F1CB32D2100E50120006E100430AF
:101B6C0021004B02913003194A02031CC32DD801EA
:101B7C000130F9007908D707C42DD701023058027B
:101B8C00031CD92D20008C19CD2D0530CE2D043001
:101B9C00F90079082100E5008A313E228D312000C0
:101BAC006E142100D80102305702031C08008A3140
:101BBC003E228D3120006E15E22DF8007808031DB1
:101BCC00F31FF82D7009FA007109FB007209FC0073
:101BDC007309FD00FA0A0319FB0A0319FC0A03191D
:101BEC00FD0A002E7308FD007208FC007108FB0052
:101BFC007008FA007308720471047004031D0F2E30
:101C0C000030F3000030F2000030F1000030F00042
:101C1C0008009630F4007408F900FE307D050319B5
:101C2C00362E0130F4007408F9070130FD36FC0C37
:101C3C00FB0CFA0C890B1C2E132E0130F4007408CB
:101C4C00F9070130FA070030FB3D0030FC3D003055
:101C5C00FD3D0130FD36FC0CFB0CFA0C890B302ED3
:101C6C00FF307D050319482E232E02307902031C08
:101C7C004A2E0130F9020130FA35FB0DFC0DFD0D39
:101C8C00890B422EFC1F3B2E7918542EFF30FA057F
:101C9C00FF30FB057F30FC05FF30FD050310F90C10
:101CAC007908F400F501F601F7011830F435F50D5B
:101CBC00F60DF70D890B5C2E7408FA047508FB04FD
:101CCC007608FC047708FD047808031DF31F6F2EBB
:101CDC00FD177D08F3007C08F2007B08F1007A0800
:101CEC00F00008000F2F22000D130C150C1D812E77
:101CFC0022000E14832E22000E100E1C882E2200A1
:101D0C008E148A2E22008E108E1C8F2E22000E1501
:101D1C00080022000E11080022000E110C150C1DDB
:101D2C009A2E22000E149C2E22000E100E1CA12E98
:101D3C0022008E14A32E22008E108E1CA82E2200A0
:101D4C000D17080022000D13080022008E100C1530
:101D5C000C1DB32E22000E14B52E22000E100E1CDC
:101D6C00BA2E22000E15BC2E22000E110E1DC12EF5
:101D7C0022000D17080022000D13080022000E107F
:101D8C000C150C1DCC2E22000D17CE2E22000D137F
:101D9C000D1FD32E22008E14D52E22008E108E1CD9
:101DAC00DA2E22000E15080022000E110800220067
:101DBC000E140E1CE42E22008E14E62E22008E1021
:101DCC008E1CEB2E22000E15ED2E22000E110E1D78
:101DDC00F22E22000D17F42E22000D130C11080008
:101DEC0022000D170C150C1DFE2E22000E14002FB8
:101DFC0022000E100E1C052F22008E14072F22001D
:101E0C008E108E1C0C2F22000E15080022000E11B5
:101E1C00080021005908F000F1017108003A03197B
:101E2C00182FF62E7008013A0319792E033A03196C
:101E3C00922E013A0319AB2E073A0319C42E013A1C
:101E4C000319DD2EF62E080009308C314B248F310E
:101E5C007508F9007608FA000530FA36F90C890B8A
:101E6C00332F79082000E6007A08E7002100C8012A
:101E7C00C9012000EE15FB0109308C314B248F3148
:101E8C007508F9007608FA000530FA36F90C890B5A
:101E9C004B2F79082100C8077A08C93D0130F90099
:101EAC007908FB0710307B02031C422F2000EE1D2B
:101EBC006F2F2100480E0F392000E6002100490E3B
:101ECC00F0392000E6042100490E0F392000E7000C
:101EDC00EE1166081E3EF9000030673DFA00013035
:101EEC007A02493003197902031C992F6608E23EE5
:101EFC00F900FF30673DFA0001307A0248300319CF
:101F0C0079020318992F6A08031D992F6F18902FC7
:101F1C00EB149E2F2930680203189E2F0130F90014
:101F2C007908E8079E2F680803199E2F0130E802F4
:101F3C0003306702113003196602031CB62F6808C0
:101F4C000319B62F6E088539031D6F1CB12F7A301B
:101F5C00F9007908EE05E80122008C102100E5015A
:101F6C00283020006802031CCA2FE8016A08031DF0
:101F7C00CA2F0A30F90079082100DD002000EB148B
:101F8C000A30F9007908EA0066081E3EF9000030B4
:101F9C00673DFA0000307A02CA3003197902031C3B
:101FAC00E42F6608E23EF900FF30673DFA0000308E
:101FBC007A02C93003197902031C6B1566081E3EA0
:101FCC00F9000030673DFA0000307A025E300319E8
:101FDC007902031C08006608E23EF900FF30673DF9
:101FEC00FA0000307A025D300319790203180800F8
:041FFC00EB150800D9
:020000040001F9
:04000E009C3FFF1FF5
:00000001FF
