:10000000803102288731CE2F3B00BF173F13BB132F
:100010003C1022008E112000EF102100E40120008E
:10002000ED010230F00070082100EA00E001DF017C
:1000300008008A31792280312000A701A601EF1340
:10004000EF1F20280130FC007C08A60704302602A0
:10005000031C1F288D31662580310130FC007C088F
:100060002000A70705302702031C1E28EF1380314C
:10007000042008002100E201D201D3010030220057
:100080000E1B01302100E10022000E132000EF1FA3
:100090004628EF13EF1F4A28EF13EB016B08A60069
:1000A000A701A635A70D0030260784008830273D1C
:1000B0008500003FA800013FA90029083B00B600C9
:1000C00020006B08A600A701A635A70D0030260763
:1000D00084008830273D850000083B00B500B4014E
:1000E00020006B08A600A701A635A70D0030260743
:1000F00084008830273D8500003FA800013FA9000B
:10010000A936A80C2808013E3B00B3008A317922A9
:1001100080312000EF13EF1F8B28EF13F9016C08DB
:10012000790203189928EF130130A6002608F90771
:100130008F280A308C314D2480316B08A600A7012E
:10014000A635A70D9830A8002130A9002608280759
:1001500086002708293D87007508C03F7608C13F03
:100160006B08A600A701A635A70D9830A80021307E
:10017000A9002608280786002708293D8700403F58
:10018000AA00413FAB002B0821005302031DCC28DD
:1001900020002A08210052020318E32820006B08DF
:1001A000A600A701A635A70D9830A8002130A90008
:1001B0002608280786002708293D8700403F2100A0
:1001C000D200413FD30001302000A6002608EB07F3
:1001D0002C306B02031C4E2880310420803100003B
:1001E000000000002000EB016B08A600A701A63567
:1001F000A70D9830A8002130A900260828078600FE
:100200002708293D8700403FAA00413FAB0021005D
:10021000530820002B02031D112921005208200041
:100220002A02031846296B08A600A701A635A70DC8
:100230009830A8002130A900260828078600270842
:10024000293D8700403FAA00413FAB002B08210019
:100250005102031D2F2920002A08210050020318F3
:10026000462920006B08A600A701A635A70D9830E7
:10027000A8002130A9002608280786002708293D64
:100280008700403F2100D000413FD10001302000D5
:10029000A6002608EB072C306B02031CF428000094
:1002A00000002000EB016B08A600A701A635A70DF2
:1002B0009830A8002130A9002608280786002708C2
:1002C000293D8700403FAA00413FAB002100510873
:1002D00020002B06031D70292100500820002A064B
:1002E00003197A290130A6002608EB072C306B028F
:1002F000031C53290530EB026B08A600A701A635A5
:10030000A70D0030260784008830273D8500003F78
:10031000A800013FA90029083B00B60020006B0897
:10032000A600A701A635A70D003026078400883057
:10033000273D850000083B00B500B40120006B0894
:10034000A600A701A635A70D003026078400883037
:10035000273D8500003FA800013FA900A936A80C51
:100360002808013E3B00B3002100610C2200031C61
:100370000E1303180E170000000000008A317922C6
:100380002100980108003D088039C2004208CA00D7
:100390003D35C2004208CC00BC1B4C144C0803196C
:1003A000DF294C0A031DDC290030BD000030BC00F1
:1003B0000030BB000030BA00BC17BD01E729003097
:1003C000BD000030BC000030BB000030BA00410866
:1003D0008039C2004208CB004B084A06031D4A1769
:1003E0004135C2004208CB00C01B4B144B08031917
:1003F000072A4B0A031D042A0030C1000030C00048
:100400000030BF000030BE00C017C1010F2A00300D
:10041000C1000030C0000030BF000030BE004C08FA
:100420004B020318552A4A1F192A8030C20042087D
:10043000CA064C08C2004208CD004B08C200420860
:10044000CC004D08C2004208CB003A08C200420866
:10045000CD003E08C2004208BA004D08C200420862
:10046000BE003B08C2004208CD003F08C20042085F
:10047000BB004D08C2004208BF003C08C200420851
:10048000CD004008C2004208BC004D08C20042082E
:10049000C0003D08C2004208CD004108C200420829
:1004A000BD004D08C2004208C100CD014B08C2008A
:1004B000C3014308C5004C084202C400031CC50325
:1004C0004508803AC60080304602031D692A1A306A
:1004D0004402031C9D2A20003D083C043B043A04CE
:1004E0000319742A0130752A0030C2004208CD0079
:1004F0000030BD000030BC000030BB000030BA004E
:100500004B08C2004208CC00A22A4D1C8D2A4D3651
:100510000138C2004208CD008F2A0310CD0C3A18D2
:10052000CD170130C200BD37BC0CBB0CBA0CC20BDE
:10053000932A0130C2004208CC0720004B084C022D
:10054000031C852A4A1BD32A4C08031DB02A0030FD
:10055000BD000030BC000030BB000030BA00080015
:100560003E08BA073F08BB3D4008BC3D4108BD3DC1
:100570003D1C4D2B4D1CC22A4D360138C20042088D
:10058000CD00C42A0310CD0C3A18CD170130C2009B
:10059000BD37BC0CBB0CBA0CC20BC82A0130C20060
:1005A0004208CC074D2B3D08803AC2004108803AF2
:1005B0004202031DE52A40083C02031DE52A3F08CC
:1005C0003B02031DE52A3E083A0203181D2BFF30AB
:1005D000C200FF30C300FF30C400FF30C5003A083E
:1005E0003E02C6003B083F3BC7003C08403BC800FA
:1005F0003D08413BC9004608C2074708C33D4808BB
:10060000C43D4908C53D4508BD004408BC00430839
:10061000BB004208BA008030C2004208CA06CD09B9
:10062000CD0A4D08031D252B0130BA070030BB3D14
:100630000030BC3D0030BD3D252B3E08BA023F08CE
:10064000BB3B4008BC3B4108BD3B3D083C043B0470
:100650003A04031D4B2B4D08031D4B2B0030BD00EE
:100660000030BC000030BB000030BA000800013090
:10067000BA35BB0DBC0DBD0D890B382BCD1B3A1403
:100680004D1C442B0314452B0310CD0D4C080319AE
:100690004B2B0130CC02BC1F372BCB01CD1F582B6D
:1006A0004D087F3903193A18562B582BCB01CB0A2A
:1006B0004B080319842B0130BA070030BB3D0030D2
:1006C000BC3D0030BD3D3D1C842B3A08C2003B08B8
:1006D000C3003C08C4003D08C5000130C600C53752
:1006E000C40CC30CC20CC60B6F2B4508BD004408DC
:1006F000BC004308BB004208BA004C0A0319842B13
:100700000130C2004208CC074C0A031D4C08031DEF
:10071000942B0030BD000030BC000030BB00003026
:10072000BA004C080319CA014C1C982BBC179C2B0F
:100730007F30C2004208BC054C36C2004208BD00F2
:10074000CA1F0800BD170800EF116D03031DAD2B74
:100750008B31B72383312100DB011E3021005B0286
:10076000031CBB2BDB0114302000E10061082100D9
:10077000E4002000EE103B00BB1FEE2B01302000F8
:10078000E10061082100E40701302000E100610878
:100790002100DB070A308C314D24833121004D08C4
:1007A0007602031DD52B4C087502031CE42B0A307E
:1007B0008C314D248331760821006702031DE22B22
:1007C000750866020318EE2B20006D080319EE1C55
:1007D000EE2B0130E10061082100D6070230210034
:1007E0005602031CFA2BD6012000ED01ED0A210070
:1007F000DF01E00164086A0203183E2D2000EE18B4
:100800003E2D0A308C314D2483317608E400750882
:10081000E3006308F0006408F100F201F301003026
:100820008D31E42583317308D5007208D400710836
:10083000D3007008D2006308F0006408F100F201F0
:10084000F30100308D31E42583317308A70072086D
:10085000A6007108A5007008A4003D30A300F53083
:10086000A200C230A1008F30A0008531B6258331AF
:100870002308D1002208D0002108CF002008CE0094
:100880008B31042383315108D9005008D8004F0818
:10089000D7004E08D6008D3101258331570821003D
:1008A000CD00200056082100CC0020006308F00095
:1008B0006408F100F201F30100308D31E425833149
:1008C0007308C1007208C0007108BF007008BE0044
:1008D0006308F0006408F100F201F30100308D318B
:1008E000E42583317308A7007208A6007108A500EB
:1008F0007008A4003D30A300F530A200C230A10072
:100900008F30A0008531B62583312308BD00220831
:10091000BC002108BB002008BA008131C32183310B
:100920003D08D9003C08D8003B08D7003A08D6005B
:100930008D310125833157082100E700200056083A
:100940002100E60020006308F0006408F100F201D5
:10095000F30100308D31E42583317308D50072082E
:10096000D4007108D3007008D2006308F000640856
:10097000F100F201F30100308D31E4258331730879
:10098000A7007208A6007108A5007008A4003D30F9
:10099000A3007530A200C230A1008F30A0008531C5
:1009A000B62583312308D1002208D0002108CF00CA
:1009B0002008CE008B31042383315108D900500820
:1009C000D8004F08D7004E08D6008D31012583315D
:1009D00057082100D500200056082100D40020002F
:1009E0006308F0006408F100F201F30100308D317A
:1009F000E42583317308C1007208C0007108BF008C
:100A00007008BE006308F0006408F100F201F30111
:100A100000308D31E42583317308A7007208A600E9
:100A20007108A5007008A4003D30A3007530A20035
:100A3000C230A1008F30A0008531B6258331230854
:100A4000BD002208BC002108BB002008BA0081318B
:100A5000C32183313D08D9003C08D8003B08D700AA
:100A60003A08D6008D310125833157082100E9006D
:100A7000200056082100E8002000EE1420006F1826
:100A80008C19932D6E088539031D932D8E3179268F
:100A9000833101302000E10061082100D9072000E6
:100AA0006E1A552D6E162100D80122008E1A0E1EC8
:100AB000612D8E120E1702302000E1006108210026
:100AC000E50022008E1E0E1E672D0230832D2000B1
:100AD000E20122000E1A6F2D2000E201E20A20003E
:100AE0006208E100E10EE10D22000E08200061061F
:100AF000DF39610622008E000E0E890C0139003AA2
:100B00000319882D03302000E10061082100E50071
:100B10008A3179228331063021005902031C0800F2
:100B2000D901D90A0800803104208331D90122007B
:100B30000C150C1D9E2D22000E14A02D22000E104F
:100B40000E1CA52D22008E14A72D22008E108E1CA7
:100B5000AC2D22000E15AE2D22000E110E1DB32D50
:100B600022000D17080022000D1308002308803909
:100B7000A8002808AD002335A8002808B300A21B50
:100B8000331433080319D12D330A031DCF2D003040
:100B9000A3000030A2000030A1000030A000A21786
:100BA000D92D0030A3000030A2000030A100003099
:100BB000A00027088039A8002808AD062735A8001E
:100BC0002808AE00A61B2E142E080319F42D2E0A99
:100BD000031DF22D0030A7000030A6000030A50054
:100BE0000030A400A617FC2D0030A7000030A6009E
:100BF0000030A5000030A4002E08031D3308031D9B
:100C00000A2E0030A3000030A2000030A100003006
:100C1000A00008002008A8002808F00026088B3152
:100C2000212385317108B9007008B8003808A80080
:100C3000A901AA01AB012B08B2002A08B1002908BA
:100C4000B0002808AF003908A800A901AA01AB012B
:100C50002B08B7002A08B6002908B5002808B400F8
:100C60002108A8002808F00025088B3121238531B0
:100C70007108B9007008B8003808A800A901AA01D5
:100C8000AB012808AF072908B03D2A08B13D2B0861
:100C9000B23D3908A800A901AA01AB012808B40790
:100CA0002908B53D2A08B63D2B08B73D2208A80003
:100CB0002808F00024088B31212385317108B90000
:100CC0007008B8003808A800A901AA01AB012808DB
:100CD000AF072908B03D2A08B13D2B08B23D3908BD
:100CE000A800A901AA01AB012808B4072908B53D4D
:100CF0002A08B63D2B08B73D0830AF35B00DB10D11
:100D0000B20D890B7D2E2108A8002808F0002408C8
:100D10008B31212385317108B9007008B80038087B
:100D2000AF073908B03D0030B13DB23D2008A80002
:100D30002808F00025088B31212385317108B9007E
:100D40007008B8003808AF073908B03D0030B13D31
:100D5000B23D0830AF35B00DB10DB20D890BAA2EE2
:100D60002008A8002808F00024088B3121238531B1
:100D70007108B9007008B8003808AF073908B03DED
:100D80000030B13DB23D2108A8002808F000260837
:100D90008B31212385317108B9007008B8003808FB
:100DA000B4073908B53D0030B63DB73D2208A8006C
:100DB0002808F00025088B31212385317108B900FE
:100DC0007008B8003808B4073908B53D0030B63DA2
:100DD000B73D2208A8002808F00026088B312123FF
:100DE00085317108B9007008B8003808A8003908C2
:100DF000A900AA01AB010830A835A90DAA0DAB0DB9
:100E0000890BFC2E2808B4072908B53D2A08B63DF1
:100E10002B08B73D3208A800A901AA01AB01280898
:100E2000B4072908B53D2A08B63D2B08B73D083060
:100E3000AF35B00DB10DB20D890B182F33082E0749
:100E4000A800A901A90D2808823EB800FF30293D5D
:100E5000B900B61B402F0130B435B50DB60DB70D36
:100E6000890B2C2FB21B34140130AF35B00DB10DEE
:100E7000B20D890B352FFF30B807FF30B93D292F50
:100E8000AE01B21F592FFF302F05A800FF303005EB
:100E9000A900FF303105AA007F303205AB002B08D6
:100EA0002A042904280403193418572F592FAE0196
:100EB000AE0A2E080319822F0130B4070030B53D69
:100EC0000030B63D0030B73D371C822F3408A800F3
:100ED0003508A9003608AA003708AB000130AC007D
:100EE000AB37AA0CA90CA80CAC0B702F2B08B700C1
:100EF0002A08B6002908B5002808B4000130B80750
:100F00000030B93D3908803AA80080302802031D1E
:100F10008B2FFF303802031C972F7F302000B70043
:100F20008030B6000030B5000030B400C12F200082
:100F30003908803AA80080302802031DA12F013013
:100F400038020318AE2F00302000B7000030B60082
:100F50000030B5000030B400AD01C12F20003808CA
:100F6000A8002808B300FF30B405FF30B5057F3076
:100F7000B6050030B7053318B6173336A800280871
:100F8000B7002D08A8002808B7043708A3003608C2
:100F9000A2003508A1003408A000080074308400C5
:100FA0008A30850021001200E6001200E7001200DE
:100FB000E8001200E9001200EA00983084002130B5
:100FC00085005830FE000030FF008A319F228731B3
:100FD00066308400003085000A30FE000030FF00DB
:100FE0008A319F228731A03084000030850046304E
:100FF000FE000030FF008A319F2220008B31FF2B42
:101000002234013421340134203401341F340134BA
:101010001E3401341D3401341C3401341B340134BA
:101020001A340134193401341834013417340134BA
:1010300016340134153401341434013413340134BA
:101040001234013411340134103401340F340134BA
:101050000E3401340D3401340C3401340B340134BA
:101060000A340134093401340834013407340134BA
:1010700006340134053401340434013403340134BA
:10108000023401340134013400340134FE340034BC
:10109000FD340034FC340034FB340034FA340034C2
:1010A000F9340034F8340034F734003400340034B8
:0E10B000FA347D343E341F34103408340434D6
:1014E4006F110800FF34FF34FF34FF3402343B0033
:1014F400BF173F13BB173C140800803104208A3106
:101504008B31402322008C14080021009512951180
:101514001508F839063895008330200095008B169D
:10152400080030309800B1309700DF30960018146E
:101534002100111420001110080064008001013101
:101544000130FE020030FF3B7F087E0403190034A3
:10155400A02A21001D141D08833924389D009E17DC
:101564001E088F3960389E00FC309E051113200040
:1015740011130800F400F201F3017408F000F10102
:1015840071087302031DC82A700872020318D02A56
:1015940000000130F0007008F407BF2A640008005E
:1015A4006F126F1C08006E0885390319E62A2200A1
:1015B4008C1403108C1E0314031CE32A22008C16C3
:1015C400080022008C12080022008C168C100800DF
:1015D4003B00BB13FC30BE058F30BE05BF173F1365
:1015E4009F30C0050130B6002230B500B4019130FF
:1015F400B300B201B10105303D00A3003B003C142F
:101604003D1008008030D1065508BD005408BC00C8
:101614005308BB005208BA005108C1005008C0006A
:101624004F08BF004E08BE008131C3213D08D100E0
:101634003C08D0003B08CF003A08CE000800F80070
:10164400F401F5017008F200F3017208F600730862
:10165400F700781C312B7608F4077708F53D013044
:10166400F635F70D890B322B0310F80C7808031D9F
:101674002B2B7508F1007408F000080022000C15EB
:101684000C1D472B22000E14492B22000E100E1C99
:101694004E2B22008E14502B22008E108E1C552BA4
:1016A40022000E15572B22000E110E1D5C2B22005A
:1016B4000D175E2B22000D138E168E1E642B220036
:1016C4000E16662B22000E128C102100D901200068
:1016D400EE010230F1007108EA052100D801E601AB
:1016E400E701CC01CD01803104200800DE01200097
:1016F400EA1C942B03106F1C0314031C842B20007E
:101704006F14862B20006F106F18912B8B314023A0
:101714008B31E50122008C142100D801942B8A31ED
:1017240079228B3120006A196F1CA42B22008E169B
:101734000E120E132000EE102100E4010330F2001B
:101744007208E5002000EA196F1CB42B22008E12E7
:101754000E160E172000EE102100E4010230F200F4
:101764007208E5002000EA0108000A308C314D249B
:101774008B3176082100A1007508A00055082102CC
:10178400031DC62B54082002031CD02B2108690218
:10179400031DCE2B200868020318D62B0130F90054
:1017A4007908E007DF01DA2B0130F9007908DF0757
:1017B40006306002031CF02B8A317F222000EE17D2
:1017C4000630F90079082100E5002000ED0102301F
:1017D400F90079082100EA00E401080004305F02FE
:1017E400031C08002000ED010230F90079082100F3
:1017F400EA00E4012000EE1008008C31A7248B31AC
:101804002000EF01EE01EA01EF1F062CEF13053073
:10181400E5006508EC0080313A208B3180311920D5
:101824008B3120006F1420006E088539031D1C2C99
:1018340022008C1620006E08853903196F1C262C93
:101844008C1D262C2100E50120006F1D2C2C8A31D3
:1018540072228B31EF1D312C8331A4238B31200074
:101864006F1E372C8A31D2228B316400153021004F
:101874005D02031C152C8D3166258B31DD018F3102
:101884002B278B310A3021005E02031C152C8B316F
:1018940078238B31152C2000A0002008F700F70DC9
:1018A400F70D21001D087706833977069D00323035
:1018B4008A31BC228C3121009D149D185F2C1C0898
:1018C400F700F80177082000A4007808A50021009B
:1018D4001B08F700F80177082000A4007808A50089
:1018E400A101A201A30121009D149D18772C1C08BD
:1018F400F700F80177082000A4007808A500083054
:10190400A435A50D890B822C21001B08F700F801D2
:1019140077082000A4047808A50403302502EF30DA
:10192400031924020318EE112408A1072508A23D77
:101934000130F7007708A30720302302031C752C1D
:101944002208F6002108F50008002100991719085B
:10195400873970389900FC30990559301A05F00020
:1019640059307006031DAF2C083024008C00200071
:101974008C0121008C0123008C01883021008C0013
:10198400BE3020008C00BE3022008C0024008D016B
:1019940020008D0121008D01103023008D003F3087
:1019A40021008D00FF3020008D00FF3022008D00CB
:1019B40024008E0120008E0121008E01803023003E
:1019C4008E00803021008E00B73020008E00B730AA
:1019D40022008E008E148B018A3187228C318A3149
:1019E40093228C318A31AB228C318A31EA227F30C6
:1019F400F0007008210095050B178B1708000310E1
:101A0400580D590DDA005A08E0006008031D132D23
:101A14000030D9000030D8000030D7000030D600A4
:101A240008005608DA005708DB005808DC0059089B
:101A3400DD001F30DD36DC0CDB0CDA0C890B1C2DD1
:101A44005A08DE005E08DF00D817FF30D605FF30E5
:101A5400D705FF30D8050030D9059630E002E01FE5
:101A6400462D6008803A973E031C0A2D0130D93672
:101A7400D80CD70CD60C890B392D0130DA005A0852
:101A8400E0070319572D382D2030600203180A2D62
:101A940060080319572D0130D635D70DD80DD90D4F
:101AA400890B4E2D0130E0024A2D5F08031908000E
:101AB400D609D709D809D909D60A0319D70A0319A7
:101AC400D80A0319D90A08000A308C314D248D3103
:101AD400FB010A308C314D248D317508F9007608EC
:101AE400FA000530FA36F90C890B742D7B35A03ECB
:101AF400860087017908C03F7A08C13F7B35A03E44
:101B040086008701403FF900413FFA00790821002F
:101B1400CA077A08CB3D0130F9007908FB07103079
:101B24007B02031C6B2D0430CB36CA0C890B962D1B
:101B340020008D1EA42D0130F90079082100D8075A
:101B4400D701B62D2100D80120006E08853903196C
:101B54006F1CAE2D22008C1020006E186F1CB42D4B
:101B64002100E50120006E10043021004B02913069
:101B740003194A02031CC42DD8010130F900790865
:101B8400D707C52DD70102305802031CDA2D2000D7
:101B94008C19CE2D0530CF2D0430F90079082100A1
:101BA400E5008A317F228D3120006E142100D80196
:101BB40002305702031C08008A317F228D31200035
:101BC4006E15E32DF8007808031DF31FF92D700935
:101BD400FA007109FB007209FC007309FD00FA0A9E
:101BE4000319FB0A0319FC0A0319FD0A012E7308E1
:101BF400FD007208FC007108FB007008FA0073080D
:101C0400720471047004031D102E0030F3000030C0
:101C1400F2000030F1000030F00008009630F400CB
:101C24007408F900FE307D050319372E0130F400E5
:101C34007408F9070130FD36FC0CFB0CFA0C890B17
:101C44001D2E142E0130F4007408F9070130FA0730
:101C54000030FB3D0030FC3D0030FD3D0130FD36E1
:101C6400FC0CFB0CFA0C890B312EFF307D0503199B
:101C7400492E242E02307902031C4B2E0130F90226
:101C84000130FA35FB0DFC0DFD0D890B432EFC1FB5
:101C94003C2E7918552EFF30FA05FF30FB057F30B6
:101CA400FC05FF30FD050310F90C7908F400F5017B
:101CB400F601F7011830F435F50DF60DF70D890B23
:101CC4005D2E7408FA047508FB047608FC04770892
:101CD400FD047808031DF31F702EFD177D08F30023
:101CE4007C08F2007B08F1007A08F0000800102F4D
:101CF40022000D130C150C1D822E22000E14842EAE
:101D040022000E100E1C892E22008E148B2E22000F
:101D14008E108E1C902E22000E15080022000E112B
:101D2400080022000E110C150C1D9B2E22000E140F
:101D34009D2E22000E100E1CA22E22008E14A42E04
:101D440022008E108E1CA92E22000D1708002200DE
:101D54000D13080022008E100C150C1DB42E220049
:101D64000E14B62E22000E100E1CBB2E22000E15D1
:101D7400BD2E22000E110E1DC22E22000D170800CA
:101D840022000D13080022000E100C150C1DCD2E80
:101D940022000D17CF2E22000D130D1FD42E22006A
:101DA4008E14D62E22008E108E1CDB2E22000E15D1
:101DB400080022000E11080022000E140E1CE52E4D
:101DC40022008E14E72E22008E108E1CEC2E220090
:101DD4000E15EE2E22000E110E1DF32E22000D17ED
:101DE400F52E22000D130C11080022000D170C15FE
:101DF4000C1DFF2E22000E14012F22000E100E1CAB
:101E0400062F22008E14082F22008E108E1C0D2FF8
:101E140022000E15080022000E11080021005908A6
:101E2400F000F1017108003A0319192FF72E700818
:101E3400013A03197A2E033A0319932E013A03192E
:101E4400AC2E073A0319C52E013A0319DE2EF72EDC
:101E5400080009308C314D248F317508F90076085B
:101E6400FA000530FA36F90C890B342F7908E600AC
:101E74007A08E7002100C801C9012000EE15FB0122
:101E840009308C314D248F317508F9007608FA0039
:101E94000530FA36F90C890B4B2F79082100C80755
:101EA4007A08C93D0130F9007908FB0710307B023C
:101EB400031C422F2000EE1D6F2F2100480E0F3906
:101EC4002000E6002100490EF0392000E60421003C
:101ED400490E0F392000E700EE1166081E3EF90096
:101EE4000030673DFA0001307A0249300319790263
:101EF400031C992F6608E23EF900FF30673DFA00A3
:101F040001307A024830031979020318992F6908BD
:101F1400031D992F6F18902FEA149E2F2930680201
:101F240003189E2F0130F9007908E8079E2F6808EE
:101F340003199E2F0130E8020330670211300319A0
:101F44006602031CB62F68080319B62F6E0885397C
:101F5400031D6F1CB12F7A30F9007908EE05E801F2
:101F640022008C102100E501283020006802031CA7
:101F7400CA2FE8016908031DCA2F0A30F90079083D
:101F84002100DE002000EA140A30F9007908E90093
:101F940066081E3EF9000030673DFA0000307A0200
:101FA400CA3003197902031CE42F6608E23EF900E3
:101FB400FF30673DFA0000307A02C9300319790214
:101FC400031C6A1566081E3EF9000030673DFA00DE
:101FD40000307A025E3003197902031C0800660897
:101FE400E23EF900FF30673DFA0000307A025D30CE
:0C1FF4000319790203180800EA15080020
:020000040001F9
:04000E009C3FFF1FF5
:00000001FF
